{
  "_format": "hh-sol-artifact-1",
  "contractName": "Poolnft",
  "sourceName": "contracts/Poolnft.sol",
  "abi": [
    {
      "inputs": [
        {
          "internalType": "string",
          "name": "baseURI",
          "type": "string"
        }
      ],
      "stateMutability": "nonpayable",
      "type": "constructor"
    },
    {
      "anonymous": false,
      "inputs": [
        {
          "indexed": true,
          "internalType": "address",
          "name": "owner",
          "type": "address"
        },
        {
          "indexed": true,
          "internalType": "address",
          "name": "approved",
          "type": "address"
        },
        {
          "indexed": true,
          "internalType": "uint256",
          "name": "tokenId",
          "type": "uint256"
        }
      ],
      "name": "Approval",
      "type": "event"
    },
    {
      "anonymous": false,
      "inputs": [
        {
          "indexed": true,
          "internalType": "address",
          "name": "owner",
          "type": "address"
        },
        {
          "indexed": true,
          "internalType": "address",
          "name": "operator",
          "type": "address"
        },
        {
          "indexed": false,
          "internalType": "bool",
          "name": "approved",
          "type": "bool"
        }
      ],
      "name": "ApprovalForAll",
      "type": "event"
    },
    {
      "anonymous": false,
      "inputs": [
        {
          "indexed": true,
          "internalType": "uint256",
          "name": "id",
          "type": "uint256"
        }
      ],
      "name": "CreatePoolNFT",
      "type": "event"
    },
    {
      "anonymous": false,
      "inputs": [
        {
          "indexed": true,
          "internalType": "address",
          "name": "previousOwner",
          "type": "address"
        },
        {
          "indexed": true,
          "internalType": "address",
          "name": "newOwner",
          "type": "address"
        }
      ],
      "name": "OwnershipTransferred",
      "type": "event"
    },
    {
      "anonymous": false,
      "inputs": [
        {
          "indexed": false,
          "internalType": "address[]",
          "name": "addresses",
          "type": "address[]"
        },
        {
          "indexed": false,
          "internalType": "uint8",
          "name": "numAllowedToFreeMint",
          "type": "uint8"
        }
      ],
      "name": "SetAllowList",
      "type": "event"
    },
    {
      "anonymous": false,
      "inputs": [
        {
          "indexed": true,
          "internalType": "address",
          "name": "from",
          "type": "address"
        },
        {
          "indexed": true,
          "internalType": "address",
          "name": "to",
          "type": "address"
        },
        {
          "indexed": true,
          "internalType": "uint256",
          "name": "tokenId",
          "type": "uint256"
        }
      ],
      "name": "Transfer",
      "type": "event"
    },
    {
      "inputs": [],
      "name": "MAX_ELEMENTS",
      "outputs": [
        {
          "internalType": "uint256",
          "name": "",
          "type": "uint256"
        }
      ],
      "stateMutability": "view",
      "type": "function"
    },
    {
      "inputs": [],
      "name": "PRICE",
      "outputs": [
        {
          "internalType": "uint256",
          "name": "",
          "type": "uint256"
        }
      ],
      "stateMutability": "view",
      "type": "function"
    },
    {
      "inputs": [
        {
          "internalType": "address",
          "name": "",
          "type": "address"
        }
      ],
      "name": "_allowList",
      "outputs": [
        {
          "internalType": "uint256",
          "name": "",
          "type": "uint256"
        }
      ],
      "stateMutability": "view",
      "type": "function"
    },
    {
      "inputs": [
        {
          "internalType": "address",
          "name": "",
          "type": "address"
        }
      ],
      "name": "_tokenFree",
      "outputs": [
        {
          "internalType": "bool",
          "name": "",
          "type": "bool"
        }
      ],
      "stateMutability": "view",
      "type": "function"
    },
    {
      "inputs": [
        {
          "internalType": "address",
          "name": "to",
          "type": "address"
        },
        {
          "internalType": "uint256",
          "name": "tokenId",
          "type": "uint256"
        }
      ],
      "name": "approve",
      "outputs": [],
      "stateMutability": "nonpayable",
      "type": "function"
    },
    {
      "inputs": [
        {
          "internalType": "address",
          "name": "owner",
          "type": "address"
        }
      ],
      "name": "balanceOf",
      "outputs": [
        {
          "internalType": "uint256",
          "name": "",
          "type": "uint256"
        }
      ],
      "stateMutability": "view",
      "type": "function"
    },
    {
      "inputs": [],
      "name": "baseTokenURI",
      "outputs": [
        {
          "internalType": "string",
          "name": "",
          "type": "string"
        }
      ],
      "stateMutability": "view",
      "type": "function"
    },
    {
      "inputs": [
        {
          "internalType": "uint256",
          "name": "tokenId",
          "type": "uint256"
        }
      ],
      "name": "getApproved",
      "outputs": [
        {
          "internalType": "address",
          "name": "",
          "type": "address"
        }
      ],
      "stateMutability": "view",
      "type": "function"
    },
    {
      "inputs": [
        {
          "internalType": "address",
          "name": "owner",
          "type": "address"
        },
        {
          "internalType": "address",
          "name": "operator",
          "type": "address"
        }
      ],
      "name": "isApprovedForAll",
      "outputs": [
        {
          "internalType": "bool",
          "name": "",
          "type": "bool"
        }
      ],
      "stateMutability": "view",
      "type": "function"
    },
    {
      "inputs": [],
      "name": "mint",
      "outputs": [
        {
          "internalType": "uint256",
          "name": "",
          "type": "uint256"
        }
      ],
      "stateMutability": "payable",
      "type": "function"
    },
    {
      "inputs": [],
      "name": "name",
      "outputs": [
        {
          "internalType": "string",
          "name": "",
          "type": "string"
        }
      ],
      "stateMutability": "view",
      "type": "function"
    },
    {
      "inputs": [],
      "name": "owner",
      "outputs": [
        {
          "internalType": "address",
          "name": "",
          "type": "address"
        }
      ],
      "stateMutability": "view",
      "type": "function"
    },
    {
      "inputs": [
        {
          "internalType": "uint256",
          "name": "tokenId",
          "type": "uint256"
        }
      ],
      "name": "ownerOf",
      "outputs": [
        {
          "internalType": "address",
          "name": "",
          "type": "address"
        }
      ],
      "stateMutability": "view",
      "type": "function"
    },
    {
      "inputs": [],
      "name": "renounceOwnership",
      "outputs": [],
      "stateMutability": "nonpayable",
      "type": "function"
    },
    {
      "inputs": [
        {
          "internalType": "address",
          "name": "from",
          "type": "address"
        },
        {
          "internalType": "address",
          "name": "to",
          "type": "address"
        },
        {
          "internalType": "uint256",
          "name": "tokenId",
          "type": "uint256"
        }
      ],
      "name": "safeTransferFrom",
      "outputs": [],
      "stateMutability": "nonpayable",
      "type": "function"
    },
    {
      "inputs": [
        {
          "internalType": "address",
          "name": "from",
          "type": "address"
        },
        {
          "internalType": "address",
          "name": "to",
          "type": "address"
        },
        {
          "internalType": "uint256",
          "name": "tokenId",
          "type": "uint256"
        },
        {
          "internalType": "bytes",
          "name": "_data",
          "type": "bytes"
        }
      ],
      "name": "safeTransferFrom",
      "outputs": [],
      "stateMutability": "nonpayable",
      "type": "function"
    },
    {
      "inputs": [
        {
          "internalType": "address[]",
          "name": "addresses",
          "type": "address[]"
        },
        {
          "internalType": "uint8",
          "name": "numAllowedToFreeMint",
          "type": "uint8"
        }
      ],
      "name": "setAllowList",
      "outputs": [],
      "stateMutability": "nonpayable",
      "type": "function"
    },
    {
      "inputs": [
        {
          "internalType": "address",
          "name": "operator",
          "type": "address"
        },
        {
          "internalType": "bool",
          "name": "approved",
          "type": "bool"
        }
      ],
      "name": "setApprovalForAll",
      "outputs": [],
      "stateMutability": "nonpayable",
      "type": "function"
    },
    {
      "inputs": [
        {
          "internalType": "string",
          "name": "baseURI",
          "type": "string"
        }
      ],
      "name": "setBaseURI",
      "outputs": [],
      "stateMutability": "nonpayable",
      "type": "function"
    },
    {
      "inputs": [
        {
          "internalType": "bytes4",
          "name": "interfaceId",
          "type": "bytes4"
        }
      ],
      "name": "supportsInterface",
      "outputs": [
        {
          "internalType": "bool",
          "name": "",
          "type": "bool"
        }
      ],
      "stateMutability": "view",
      "type": "function"
    },
    {
      "inputs": [],
      "name": "symbol",
      "outputs": [
        {
          "internalType": "string",
          "name": "",
          "type": "string"
        }
      ],
      "stateMutability": "view",
      "type": "function"
    },
    {
      "inputs": [
        {
          "internalType": "uint256",
          "name": "index",
          "type": "uint256"
        }
      ],
      "name": "tokenByIndex",
      "outputs": [
        {
          "internalType": "uint256",
          "name": "",
          "type": "uint256"
        }
      ],
      "stateMutability": "view",
      "type": "function"
    },
    {
      "inputs": [
        {
          "internalType": "address",
          "name": "owner",
          "type": "address"
        },
        {
          "internalType": "uint256",
          "name": "index",
          "type": "uint256"
        }
      ],
      "name": "tokenOfOwnerByIndex",
      "outputs": [
        {
          "internalType": "uint256",
          "name": "",
          "type": "uint256"
        }
      ],
      "stateMutability": "view",
      "type": "function"
    },
    {
      "inputs": [
        {
          "internalType": "uint256",
          "name": "tokenId",
          "type": "uint256"
        }
      ],
      "name": "tokenURI",
      "outputs": [
        {
          "internalType": "string",
          "name": "",
          "type": "string"
        }
      ],
      "stateMutability": "view",
      "type": "function"
    },
    {
      "inputs": [],
      "name": "totalSupply",
      "outputs": [
        {
          "internalType": "uint256",
          "name": "",
          "type": "uint256"
        }
      ],
      "stateMutability": "view",
      "type": "function"
    },
    {
      "inputs": [
        {
          "internalType": "address",
          "name": "from",
          "type": "address"
        },
        {
          "internalType": "address",
          "name": "to",
          "type": "address"
        },
        {
          "internalType": "uint256",
          "name": "tokenId",
          "type": "uint256"
        }
      ],
      "name": "transferFrom",
      "outputs": [],
      "stateMutability": "nonpayable",
      "type": "function"
    },
    {
      "inputs": [
        {
          "internalType": "address",
          "name": "newOwner",
          "type": "address"
        }
      ],
      "name": "transferOwnership",
      "outputs": [],
      "stateMutability": "nonpayable",
      "type": "function"
    },
    {
      "inputs": [
        {
          "internalType": "address",
          "name": "_owner",
          "type": "address"
        }
      ],
      "name": "walletOfOwner",
      "outputs": [
        {
          "internalType": "uint256[]",
          "name": "",
          "type": "uint256[]"
        }
      ],
      "stateMutability": "view",
      "type": "function"
    },
    {
      "inputs": [],
      "name": "withdraw",
      "outputs": [],
      "stateMutability": "payable",
      "type": "function"
    }
  ],
  "bytecode": "0x60806040523480156200001157600080fd5b50604051620027fd380380620027fd833981016040819052620000349162000237565b6040805180820182526007815266141bdbdb13919560ca1b60208083019182528351808501909452600384526228222760e91b9084015281519192916200007e9160009162000191565b5080516200009490600190602084019062000191565b505050620000b1620000ab620000c360201b60201c565b620000c7565b620000bc8162000119565b5062000360565b3390565b600a80546001600160a01b038381166001600160a01b0319831681179093556040519116919082907f8be0079c531659141344cd1fd0a4f28419497f9722a3daafe3b4186f6b6457e090600090a35050565b600a546001600160a01b03163314620001785760405162461bcd60e51b815260206004820181905260248201527f4f776e61626c653a2063616c6c6572206973206e6f7420746865206f776e6572604482015260640160405180910390fd5b80516200018d90600c90602084019062000191565b5050565b8280546200019f906200030d565b90600052602060002090601f016020900481019282620001c357600085556200020e565b82601f10620001de57805160ff19168380011785556200020e565b828001600101855582156200020e579182015b828111156200020e578251825591602001919060010190620001f1565b506200021c92915062000220565b5090565b5b808211156200021c576000815560010162000221565b600060208083850312156200024a578182fd5b82516001600160401b038082111562000261578384fd5b818501915085601f83011262000275578384fd5b8151818111156200028a576200028a6200034a565b604051601f8201601f19908116603f01168101908382118183101715620002b557620002b56200034a565b816040528281528886848701011115620002cd578687fd5b8693505b82841015620002f05784840186015181850187015292850192620002d1565b828411156200030157868684830101525b98975050505050505050565b600181811c908216806200032257607f821691505b602082108114156200034457634e487b7160e01b600052602260045260246000fd5b50919050565b634e487b7160e01b600052604160045260246000fd5b61248d80620003706000396000f3fe6080604052600436106101c25760003560e01c80635ccba052116100f757806395d89b4111610095578063c87b56dd11610064578063c87b56dd146104ee578063d547cfb71461050e578063e985e9c514610523578063f2fde38b1461056c57600080fd5b806395d89b4114610469578063a22cb4651461047e578063ac24e4911461049e578063b88d4fde146104ce57600080fd5b8063715018a6116100d1578063715018a6146103fb5780638295784d146104105780638d859f3e146104305780638da5cb5b1461044b57600080fd5b80635ccba0521461038e5780636352211e146103bb57806370a08231146103db57600080fd5b80632f745c591161016457806342842e0e1161013e57806342842e0e14610301578063438b6300146103215780634f6ccce71461034e57806355f804b31461036e57600080fd5b80632f745c59146102c35780633502a716146102e35780633ccfd60b146102f957600080fd5b8063095ea7b3116101a0578063095ea7b3146102565780631249c58b1461027857806318160ddd1461028e57806323b872dd146102a357600080fd5b806301ffc9a7146101c757806306fdde03146101fc578063081812fc1461021e575b600080fd5b3480156101d357600080fd5b506101e76101e2366004612110565b61058c565b60405190151581526020015b60405180910390f35b34801561020857600080fd5b506102116105b7565b6040516101f391906122d9565b34801561022a57600080fd5b5061023e61023936600461218e565b610649565b6040516001600160a01b0390911681526020016101f3565b34801561026257600080fd5b50610276610271366004612061565b6106e3565b005b6102806107f9565b6040519081526020016101f3565b34801561029a57600080fd5b50600854610280565b3480156102af57600080fd5b506102766102be366004611f73565b610956565b3480156102cf57600080fd5b506102806102de366004612061565b6109d1565b3480156102ef57600080fd5b506102806103e881565b610276610a67565b34801561030d57600080fd5b5061027661031c366004611f73565b610b68565b34801561032d57600080fd5b5061034161033c366004611f27565b610b83565b6040516101f39190612295565b34801561035a57600080fd5b5061028061036936600461218e565b610c41565b34801561037a57600080fd5b50610276610389366004612148565b610ce2565b34801561039a57600080fd5b506102806103a9366004611f27565b600d6020526000908152604090205481565b3480156103c757600080fd5b5061023e6103d636600461218e565b610d4f565b3480156103e757600080fd5b506102806103f6366004611f27565b610dc6565b34801561040757600080fd5b50610276610e4d565b34801561041c57600080fd5b5061027661042b36600461208a565b610eb3565b34801561043c57600080fd5b506102806658d15e1762800081565b34801561045757600080fd5b50600a546001600160a01b031661023e565b34801561047557600080fd5b50610211610fcc565b34801561048a57600080fd5b50610276610499366004612027565b610fdb565b3480156104aa57600080fd5b506101e76104b9366004611f27565b600e6020526000908152604090205460ff1681565b3480156104da57600080fd5b506102766104e9366004611fae565b610fe6565b3480156104fa57600080fd5b5061021161050936600461218e565b611068565b34801561051a57600080fd5b5061021161115e565b34801561052f57600080fd5b506101e761053e366004611f41565b6001600160a01b03918216600090815260056020908152604080832093909416825291909152205460ff1690565b34801561057857600080fd5b50610276610587366004611f27565b6111ec565b60006001600160e01b0319821663780e9d6360e01b14806105b157506105b1826112b7565b92915050565b6060600080546105c690612395565b80601f01602080910402602001604051908101604052809291908181526020018280546105f290612395565b801561063f5780601f106106145761010080835404028352916020019161063f565b820191906000526020600020905b81548152906001019060200180831161062257829003601f168201915b5050505050905090565b6000818152600260205260408120546001600160a01b03166106c75760405162461bcd60e51b815260206004820152602c60248201527f4552433732313a20617070726f76656420717565727920666f72206e6f6e657860448201526b34b9ba32b73a103a37b5b2b760a11b60648201526084015b60405180910390fd5b506000908152600460205260409020546001600160a01b031690565b60006106ee82610d4f565b9050806001600160a01b0316836001600160a01b0316141561075c5760405162461bcd60e51b815260206004820152602160248201527f4552433732313a20617070726f76616c20746f2063757272656e74206f776e656044820152603960f91b60648201526084016106be565b336001600160a01b03821614806107785750610778813361053e565b6107ea5760405162461bcd60e51b815260206004820152603860248201527f4552433732313a20617070726f76652063616c6c6572206973206e6f74206f7760448201527f6e6572206e6f7220617070726f76656420666f7220616c6c000000000000000060648201526084016106be565b6107f48383611307565b505050565b60006103e8610807600b5490565b1061083f5760405162461bcd60e51b815260206004820152600860248201526714d85b1948195b9960c21b60448201526064016106be565b336000908152600e602052604090205460ff166108ff57336000908152600d602052604090205461088957336000908152600e60205260409020805460ff191660011790556108aa565b336000908152600d602052604081208054916108a48361237e565b91905055505b6108b8600b80546001019055565b60006108c3600b5490565b90506108cf3382611375565b60405181907fd9f0f135272a65b9d7edd4b630bcfe9064369f5844fe815f68f9f204212b22c890600090a2919050565b6658d15e176280003410156108aa5760405162461bcd60e51b815260206004820152601160248201527f56616c75652062656c6f7720707269636500000000000000000000000000000060448201526064016106be565b61096033826114c3565b6109c65760405162461bcd60e51b815260206004820152603160248201527f4552433732313a207472616e736665722063616c6c6572206973206e6f74206f6044820152701ddb995c881b9bdc88185c1c1c9bdd9959607a1b60648201526084016106be565b6107f48383836115ba565b60006109dc83610dc6565b8210610a3e5760405162461bcd60e51b815260206004820152602b60248201527f455243373231456e756d657261626c653a206f776e657220696e646578206f7560448201526a74206f6620626f756e647360a81b60648201526084016106be565b506001600160a01b03919091166000908152600660209081526040808320938352929052205490565b600a546001600160a01b03163314610ac15760405162461bcd60e51b815260206004820181905260248201527f4f776e61626c653a2063616c6c6572206973206e6f7420746865206f776e657260448201526064016106be565b4780610acc57600080fd5b604051600090339083908381818185875af1925050503d8060008114610b0e576040519150601f19603f3d011682016040523d82523d6000602084013e610b13565b606091505b5050905080610b645760405162461bcd60e51b815260206004820152601060248201527f5472616e73666572206661696c65642e0000000000000000000000000000000060448201526064016106be565b5050565b6107f483838360405180602001604052806000815250610fe6565b60606000610b9083610dc6565b905060008167ffffffffffffffff811115610bbb57634e487b7160e01b600052604160045260246000fd5b604051908082528060200260200182016040528015610be4578160200160208202803683370190505b50905060005b82811015610c3957610bfc85826109d1565b828281518110610c1c57634e487b7160e01b600052603260045260246000fd5b602090810291909101015280610c31816123d0565b915050610bea565b509392505050565b6000610c4c60085490565b8210610caf5760405162461bcd60e51b815260206004820152602c60248201527f455243373231456e756d657261626c653a20676c6f62616c20696e646578206f60448201526b7574206f6620626f756e647360a01b60648201526084016106be565b60088281548110610cd057634e487b7160e01b600052603260045260246000fd5b90600052602060002001549050919050565b600a546001600160a01b03163314610d3c5760405162461bcd60e51b815260206004820181905260248201527f4f776e61626c653a2063616c6c6572206973206e6f7420746865206f776e657260448201526064016106be565b8051610b6490600c906020840190611dfc565b6000818152600260205260408120546001600160a01b0316806105b15760405162461bcd60e51b815260206004820152602960248201527f4552433732313a206f776e657220717565727920666f72206e6f6e657869737460448201526832b73a103a37b5b2b760b91b60648201526084016106be565b60006001600160a01b038216610e315760405162461bcd60e51b815260206004820152602a60248201527f4552433732313a2062616c616e636520717565727920666f7220746865207a65604482015269726f206164647265737360b01b60648201526084016106be565b506001600160a01b031660009081526003602052604090205490565b600a546001600160a01b03163314610ea75760405162461bcd60e51b815260206004820181905260248201527f4f776e61626c653a2063616c6c6572206973206e6f7420746865206f776e657260448201526064016106be565b610eb16000611761565b565b600a546001600160a01b03163314610f0d5760405162461bcd60e51b815260206004820181905260248201527f4f776e61626c653a2063616c6c6572206973206e6f7420746865206f776e657260448201526064016106be565b60005b82811015610f8b57610f2360018361232f565b60ff16600d6000868685818110610f4a57634e487b7160e01b600052603260045260246000fd5b9050602002016020810190610f5f9190611f27565b6001600160a01b0316815260208101919091526040016000205580610f83816123d0565b915050610f10565b507f77b779ac855300960d5a2e6c2cc55a900670053d85c5bf41bdf7845a3eefa9e6838383604051610fbf9392919061223d565b60405180910390a1505050565b6060600180546105c690612395565b610b643383836117b3565b610ff033836114c3565b6110565760405162461bcd60e51b815260206004820152603160248201527f4552433732313a207472616e736665722063616c6c6572206973206e6f74206f6044820152701ddb995c881b9bdc88185c1c1c9bdd9959607a1b60648201526084016106be565b61106284848484611882565b50505050565b6000818152600260205260409020546060906001600160a01b03166110f55760405162461bcd60e51b815260206004820152602f60248201527f4552433732314d657461646174613a2055524920717565727920666f72206e6f60448201527f6e6578697374656e7420746f6b656e000000000000000000000000000000000060648201526084016106be565b600061110c60408051602081019091526000815290565b9050600081511161112c5760405180602001604052806000815250611157565b8061113684611900565b6040516020016111479291906121d2565b6040516020818303038152906040525b9392505050565b600c805461116b90612395565b80601f016020809104026020016040519081016040528092919081815260200182805461119790612395565b80156111e45780601f106111b9576101008083540402835291602001916111e4565b820191906000526020600020905b8154815290600101906020018083116111c757829003601f168201915b505050505081565b600a546001600160a01b031633146112465760405162461bcd60e51b815260206004820181905260248201527f4f776e61626c653a2063616c6c6572206973206e6f7420746865206f776e657260448201526064016106be565b6001600160a01b0381166112ab5760405162461bcd60e51b815260206004820152602660248201527f4f776e61626c653a206e6577206f776e657220697320746865207a65726f206160448201526564647265737360d01b60648201526084016106be565b6112b481611761565b50565b60006001600160e01b031982166380ac58cd60e01b14806112e857506001600160e01b03198216635b5e139f60e01b145b806105b157506301ffc9a760e01b6001600160e01b03198316146105b1565b600081815260046020526040902080546001600160a01b0319166001600160a01b038416908117909155819061133c82610d4f565b6001600160a01b03167f8c5be1e5ebec7d5bd14f71427d1e84f3dd0314c0f7b2291e5b200ac8c7c3b92560405160405180910390a45050565b6001600160a01b0382166113cb5760405162461bcd60e51b815260206004820181905260248201527f4552433732313a206d696e7420746f20746865207a65726f206164647265737360448201526064016106be565b6000818152600260205260409020546001600160a01b0316156114305760405162461bcd60e51b815260206004820152601c60248201527f4552433732313a20746f6b656e20616c7265616479206d696e7465640000000060448201526064016106be565b61143c60008383611a32565b6001600160a01b03821660009081526003602052604081208054600192906114659084906122ec565b909155505060008181526002602052604080822080546001600160a01b0319166001600160a01b03861690811790915590518392907fddf252ad1be2c89b69c2b068fc378daa952ba7f163c4a11628f55a4df523b3ef908290a45050565b6000818152600260205260408120546001600160a01b031661153c5760405162461bcd60e51b815260206004820152602c60248201527f4552433732313a206f70657261746f7220717565727920666f72206e6f6e657860448201526b34b9ba32b73a103a37b5b2b760a11b60648201526084016106be565b600061154783610d4f565b9050806001600160a01b0316846001600160a01b0316148061158e57506001600160a01b0380821660009081526005602090815260408083209388168352929052205460ff165b806115b25750836001600160a01b03166115a784610649565b6001600160a01b0316145b949350505050565b826001600160a01b03166115cd82610d4f565b6001600160a01b0316146116315760405162461bcd60e51b815260206004820152602560248201527f4552433732313a207472616e736665722066726f6d20696e636f72726563742060448201526437bbb732b960d91b60648201526084016106be565b6001600160a01b0382166116935760405162461bcd60e51b8152602060048201526024808201527f4552433732313a207472616e7366657220746f20746865207a65726f206164646044820152637265737360e01b60648201526084016106be565b61169e838383611a32565b6116a9600082611307565b6001600160a01b03831660009081526003602052604081208054600192906116d2908490612318565b90915550506001600160a01b03821660009081526003602052604081208054600192906117009084906122ec565b909155505060008181526002602052604080822080546001600160a01b0319166001600160a01b0386811691821790925591518493918716917fddf252ad1be2c89b69c2b068fc378daa952ba7f163c4a11628f55a4df523b3ef91a4505050565b600a80546001600160a01b038381166001600160a01b0319831681179093556040519116919082907f8be0079c531659141344cd1fd0a4f28419497f9722a3daafe3b4186f6b6457e090600090a35050565b816001600160a01b0316836001600160a01b031614156118155760405162461bcd60e51b815260206004820152601960248201527f4552433732313a20617070726f766520746f2063616c6c65720000000000000060448201526064016106be565b6001600160a01b03838116600081815260056020908152604080832094871680845294825291829020805460ff191686151590811790915591519182527f17307eab39ab6107e8899845ad3d59bd9653f200f220920489ca2b5937696c31910160405180910390a3505050565b61188d8484846115ba565b61189984848484611aea565b6110625760405162461bcd60e51b815260206004820152603260248201527f4552433732313a207472616e7366657220746f206e6f6e20455243373231526560448201527131b2b4bb32b91034b6b83632b6b2b73a32b960711b60648201526084016106be565b6060816119245750506040805180820190915260018152600360fc1b602082015290565b8160005b811561194e5780611938816123d0565b91506119479050600a83612304565b9150611928565b60008167ffffffffffffffff81111561197757634e487b7160e01b600052604160045260246000fd5b6040519080825280601f01601f1916602001820160405280156119a1576020820181803683370190505b5090505b84156115b2576119b6600183612318565b91506119c3600a866123eb565b6119ce9060306122ec565b60f81b8183815181106119f157634e487b7160e01b600052603260045260246000fd5b60200101907effffffffffffffffffffffffffffffffffffffffffffffffffffffffffffff1916908160001a905350611a2b600a86612304565b94506119a5565b6001600160a01b038316611a8d57611a8881600880546000838152600960205260408120829055600182018355919091527ff3f7a9fe364faab93b216da50a3214154f22a0a2b415b23a84c8169e8b636ee30155565b611ab0565b816001600160a01b0316836001600160a01b031614611ab057611ab08382611c42565b6001600160a01b038216611ac7576107f481611cdf565b826001600160a01b0316826001600160a01b0316146107f4576107f48282611db8565b60006001600160a01b0384163b15611c3757604051630a85bd0160e11b81526001600160a01b0385169063150b7a0290611b2e903390899088908890600401612201565b602060405180830381600087803b158015611b4857600080fd5b505af1925050508015611b78575060408051601f3d908101601f19168201909252611b759181019061212c565b60015b611c1d573d808015611ba6576040519150601f19603f3d011682016040523d82523d6000602084013e611bab565b606091505b508051611c155760405162461bcd60e51b815260206004820152603260248201527f4552433732313a207472616e7366657220746f206e6f6e20455243373231526560448201527131b2b4bb32b91034b6b83632b6b2b73a32b960711b60648201526084016106be565b805181602001fd5b6001600160e01b031916630a85bd0160e11b1490506115b2565b506001949350505050565b60006001611c4f84610dc6565b611c599190612318565b600083815260076020526040902054909150808214611cac576001600160a01b03841660009081526006602090815260408083208584528252808320548484528184208190558352600790915290208190555b5060009182526007602090815260408084208490556001600160a01b039094168352600681528383209183525290812055565b600854600090611cf190600190612318565b60008381526009602052604081205460088054939450909284908110611d2757634e487b7160e01b600052603260045260246000fd5b906000526020600020015490508060088381548110611d5657634e487b7160e01b600052603260045260246000fd5b6000918252602080832090910192909255828152600990915260408082208490558582528120556008805480611d9c57634e487b7160e01b600052603160045260246000fd5b6001900381819060005260206000200160009055905550505050565b6000611dc383610dc6565b6001600160a01b039093166000908152600660209081526040808320868452825280832085905593825260079052919091209190915550565b828054611e0890612395565b90600052602060002090601f016020900481019282611e2a5760008555611e70565b82601f10611e4357805160ff1916838001178555611e70565b82800160010185558215611e70579182015b82811115611e70578251825591602001919060010190611e55565b50611e7c929150611e80565b5090565b5b80821115611e7c5760008155600101611e81565b600067ffffffffffffffff80841115611eb057611eb061242b565b604051601f8501601f19908116603f01168101908282118183101715611ed857611ed861242b565b81604052809350858152868686011115611ef157600080fd5b858560208301376000602087830101525050509392505050565b80356001600160a01b0381168114611f2257600080fd5b919050565b600060208284031215611f38578081fd5b61115782611f0b565b60008060408385031215611f53578081fd5b611f5c83611f0b565b9150611f6a60208401611f0b565b90509250929050565b600080600060608486031215611f87578081fd5b611f9084611f0b565b9250611f9e60208501611f0b565b9150604084013590509250925092565b60008060008060808587031215611fc3578081fd5b611fcc85611f0b565b9350611fda60208601611f0b565b925060408501359150606085013567ffffffffffffffff811115611ffc578182fd5b8501601f8101871361200c578182fd5b61201b87823560208401611e95565b91505092959194509250565b60008060408385031215612039578182fd5b61204283611f0b565b915060208301358015158114612056578182fd5b809150509250929050565b60008060408385031215612073578182fd5b61207c83611f0b565b946020939093013593505050565b60008060006040848603121561209e578283fd5b833567ffffffffffffffff808211156120b5578485fd5b818601915086601f8301126120c8578485fd5b8135818111156120d6578586fd5b8760208260051b85010111156120ea578586fd5b6020928301955093505084013560ff81168114612105578182fd5b809150509250925092565b600060208284031215612121578081fd5b813561115781612441565b60006020828403121561213d578081fd5b815161115781612441565b600060208284031215612159578081fd5b813567ffffffffffffffff81111561216f578182fd5b8201601f8101841361217f578182fd5b6115b284823560208401611e95565b60006020828403121561219f578081fd5b5035919050565b600081518084526121be816020860160208601612352565b601f01601f19169290920160200192915050565b600083516121e4818460208801612352565b8351908301906121f8818360208801612352565b01949350505050565b60006001600160a01b0380871683528086166020840152508360408301526080606083015261223360808301846121a6565b9695505050505050565b6040808252810183905260008460608301825b8681101561227e576001600160a01b0361226984611f0b565b16825260209283019290910190600101612250565b50809250505060ff83166020830152949350505050565b6020808252825182820181905260009190848201906040850190845b818110156122cd578351835292840192918401916001016122b1565b50909695505050505050565b60208152600061115760208301846121a6565b600082198211156122ff576122ff6123ff565b500190565b60008261231357612313612415565b500490565b60008282101561232a5761232a6123ff565b500390565b600060ff821660ff841680821015612349576123496123ff565b90039392505050565b60005b8381101561236d578181015183820152602001612355565b838111156110625750506000910152565b60008161238d5761238d6123ff565b506000190190565b600181811c908216806123a957607f821691505b602082108114156123ca57634e487b7160e01b600052602260045260246000fd5b50919050565b60006000198214156123e4576123e46123ff565b5060010190565b6000826123fa576123fa612415565b500690565b634e487b7160e01b600052601160045260246000fd5b634e487b7160e01b600052601260045260246000fd5b634e487b7160e01b600052604160045260246000fd5b6001600160e01b0319811681146112b457600080fdfea264697066735822122093fbc7b91711a2a148515418a30de3e036c7734f6ee74d378b4d6ddc797b5fa464736f6c63430008040033",
  "linkReferences": {},
  "deployedLinkReferences": {}
}